{"abi":[{"type":"constructor","inputs":[{"name":"_usdy","type":"address","internalType":"address"},{"name":"_meth","type":"address","internalType":"address"},{"name":"_methPriceE18","type":"uint256","internalType":"uint256"}],"stateMutability":"nonpayable"},{"type":"function","name":"MAX_RISK_BPS","inputs":[],"outputs":[{"name":"","type":"uint256","internalType":"uint256"}],"stateMutability":"view"},{"type":"function","name":"deposit","inputs":[{"name":"asset","type":"address","internalType":"address"},{"name":"amount","type":"uint256","internalType":"uint256"}],"outputs":[],"stateMutability":"nonpayable"},{"type":"function","name":"getPortfolio","inputs":[{"name":"user","type":"address","internalType":"address"}],"outputs":[{"name":"usdyBal","type":"uint256","internalType":"uint256"},{"name":"methBal","type":"uint256","internalType":"uint256"},{"name":"usdyBps","type":"uint256","internalType":"uint256"},{"name":"methBps","type":"uint256","internalType":"uint256"}],"stateMutability":"view"},{"type":"function","name":"getTotalValue","inputs":[{"name":"user","type":"address","internalType":"address"}],"outputs":[{"name":"","type":"uint256","internalType":"uint256"}],"stateMutability":"view"},{"type":"function","name":"meth","inputs":[],"outputs":[{"name":"","type":"address","internalType":"address"}],"stateMutability":"view"},{"type":"function","name":"methBalanceOf","inputs":[{"name":"","type":"address","internalType":"address"}],"outputs":[{"name":"","type":"uint256","internalType":"uint256"}],"stateMutability":"view"},{"type":"function","name":"methPriceE18","inputs":[],"outputs":[{"name":"","type":"uint256","internalType":"uint256"}],"stateMutability":"view"},{"type":"function","name":"methToken","inputs":[],"outputs":[{"name":"","type":"address","internalType":"contract IMockRWAToken"}],"stateMutability":"view"},{"type":"function","name":"owner","inputs":[],"outputs":[{"name":"","type":"address","internalType":"address"}],"stateMutability":"view"},{"type":"function","name":"rebalance","inputs":[{"name":"usdyBps","type":"uint256","internalType":"uint256"},{"name":"methBps","type":"uint256","internalType":"uint256"}],"outputs":[],"stateMutability":"nonpayable"},{"type":"function","name":"rebalanceFor","inputs":[{"name":"user","type":"address","internalType":"address"},{"name":"usdyBps","type":"uint256","internalType":"uint256"},{"name":"methBps","type":"uint256","internalType":"uint256"}],"outputs":[],"stateMutability":"nonpayable"},{"type":"function","name":"setMethPrice","inputs":[{"name":"_methPriceE18","type":"uint256","internalType":"uint256"}],"outputs":[],"stateMutability":"nonpayable"},{"type":"function","name":"usdy","inputs":[],"outputs":[{"name":"","type":"address","internalType":"address"}],"stateMutability":"view"},{"type":"function","name":"usdyBalanceOf","inputs":[{"name":"","type":"address","internalType":"address"}],"outputs":[{"name":"","type":"uint256","internalType":"uint256"}],"stateMutability":"view"},{"type":"function","name":"usdyToken","inputs":[],"outputs":[{"name":"","type":"address","internalType":"contract IMockRWAToken"}],"stateMutability":"view"},{"type":"function","name":"withdraw","inputs":[{"name":"asset","type":"address","internalType":"address"},{"name":"amount","type":"uint256","internalType":"uint256"}],"outputs":[],"stateMutability":"nonpayable"},{"type":"event","name":"Deposited","inputs":[{"name":"user","type":"address","indexed":true,"internalType":"address"},{"name":"asset","type":"address","indexed":false,"internalType":"address"},{"name":"amount","type":"uint256","indexed":false,"internalType":"uint256"}],"anonymous":false},{"type":"event","name":"MethPriceUpdated","inputs":[{"name":"methPriceE18","type":"uint256","indexed":false,"internalType":"uint256"}],"anonymous":false},{"type":"event","name":"Rebalanced","inputs":[{"name":"user","type":"address","indexed":true,"internalType":"address"},{"name":"usdyBps","type":"uint256","indexed":false,"internalType":"uint256"},{"name":"methBps","type":"uint256","indexed":false,"internalType":"uint256"},{"name":"timestamp","type":"uint256","indexed":false,"internalType":"uint256"}],"anonymous":false},{"type":"event","name":"Withdrawn","inputs":[{"name":"user","type":"address","indexed":true,"internalType":"address"},{"name":"asset","type":"address","indexed":false,"internalType":"address"},{"name":"amount","type":"uint256","indexed":false,"internalType":"uint256"}],"anonymous":false}],"bytecode":{"object":"0x60c060405234801561000f575f80fd5b5060405161105f38038061105f83398101604081905261002e9161010e565b6001600160a01b0383161580159061004e57506001600160a01b03821615155b61008b5760405162461bcd60e51b81526020600482015260096024820152682d22a927afa0a2222960b91b60448201526064015b60405180910390fd5b5f81116100c75760405162461bcd60e51b815260206004820152600a6024820152695a45524f5f505249434560b01b6044820152606401610082565b6001600160a01b03928316608052911660a0526001555f80546001600160a01b03191633179055610147565b80516001600160a01b0381168114610109575f80fd5b919050565b5f805f60608486031215610120575f80fd5b610129846100f3565b9250610137602085016100f3565b9150604084015190509250925092565b60805160a051610eb16101ae5f395f8181610101015281816101db01528181610348015281816107750152610baf01525f81816101a1015281816102240152818161030d015281816104640152818161073a015281816107e30152610b850152610eb15ff3fe608060405234801561000f575f80fd5b50600436106100fb575f3560e01c80638da5cb5b11610093578063cf63c6f311610063578063cf63c6f314610267578063df8879b814610270578063eb22ae1114610283578063f3fef3a3146102b6575f80fd5b80638da5cb5b146101fd57806390ff57251461020f57806398d506e9146102225780639e01aec914610248575f80fd5b80636aaaa877116100ce5780636aaaa877146101935780636f019e4b1461019c5780637b0f521d146101c3578063812b6883146101d6575f80fd5b80633c9b1f5b146100ff57806347e7ef241461013e5780634d9f43cc146101535780636863754914610180575b5f80fd5b7f00000000000000000000000000000000000000000000000000000000000000005b6040516001600160a01b0390911681526020015b60405180910390f35b61015161014c366004610d2d565b6102c9565b005b610172610161366004610d55565b60026020525f908152604090205481565b604051908152602001610135565b61017261018e366004610d55565b610531565b610172611b5881565b6101217f000000000000000000000000000000000000000000000000000000000000000081565b6101516101d1366004610d6e565b610541565b6101217f000000000000000000000000000000000000000000000000000000000000000081565b5f54610121906001600160a01b031681565b61015161021d366004610d9e565b610596565b7f0000000000000000000000000000000000000000000000000000000000000000610121565b610172610256366004610d55565b60036020525f908152604090205481565b61017260015481565b61015161027e366004610db5565b610652565b610296610291366004610d55565b610661565b604080519485526020850193909352918301526060820152608001610135565b6101516102c4366004610d2d565b6106fb565b5f811161030b5760405162461bcd60e51b815260206004820152600b60248201526a16915493d7d05353d5539560aa1b60448201526064015b60405180910390fd5b7f00000000000000000000000000000000000000000000000000000000000000006001600160a01b0316826001600160a01b0316148061037c57507f00000000000000000000000000000000000000000000000000000000000000006001600160a01b0316826001600160a01b0316145b6103b45760405162461bcd60e51b815260206004820152600960248201526810905117d054d4d15560ba1b6044820152606401610302565b6040516323b872dd60e01b8152336004820152306024820152604481018290526001600160a01b038316906323b872dd906064016020604051808303815f875af1158015610404573d5f803e3d5ffd5b505050506040513d601f19601f820116820180604052508101906104289190610dd5565b6104625760405162461bcd60e51b815260206004820152600b60248201526a2a2920a729a322a92fa4a760a91b6044820152606401610302565b7f00000000000000000000000000000000000000000000000000000000000000006001600160a01b0316826001600160a01b0316036104c457335f90815260026020526040812080548392906104b9908490610e08565b909155506104e89050565b335f90815260036020526040812080548392906104e2908490610e08565b90915550505b604080516001600160a01b03841681526020810183905233917f8752a472e571a816aea92eec8dae9baf628e840f4929fbcc2d155e6233ff68a791015b60405180910390a25050565b5f61053b826109e1565b92915050565b5f546001600160a01b031633146105865760405162461bcd60e51b81526020600482015260096024820152682727aa2fa7aba722a960b91b6044820152606401610302565b610591838383610a4a565b505050565b5f546001600160a01b031633146105db5760405162461bcd60e51b81526020600482015260096024820152682727aa2fa7aba722a960b91b6044820152606401610302565b5f81116106175760405162461bcd60e51b815260206004820152600a6024820152695a45524f5f505249434560b01b6044820152606401610302565b60018190556040518181527f2fb82147b8c1fd0f70c00dc289e1ecb64b357831e28527abaaab10e4a0a532339060200160405180910390a150565b61065d338383610a4a565b5050565b6001600160a01b0381165f90815260026020908152604080832054600390925282205490918080610691866109e1565b9050805f036106a657505f91508190506106f4565b5f670de0b6b3a7640000600154866106be9190610e1b565b6106c89190610e32565b9050816106d761271083610e1b565b6106e19190610e32565b92506106ef83612710610e51565b935050505b9193509193565b5f81116107385760405162461bcd60e51b815260206004820152600b60248201526a16915493d7d05353d5539560aa1b6044820152606401610302565b7f00000000000000000000000000000000000000000000000000000000000000006001600160a01b0316826001600160a01b031614806107a957507f00000000000000000000000000000000000000000000000000000000000000006001600160a01b0316826001600160a01b0316145b6107e15760405162461bcd60e51b815260206004820152600960248201526810905117d054d4d15560ba1b6044820152606401610302565b7f00000000000000000000000000000000000000000000000000000000000000006001600160a01b0316826001600160a01b03160361088b57335f908152600260205260409020548111156108625760405162461bcd60e51b815260206004820152600760248201526642414c414e434560c81b6044820152606401610302565b335f9081526002602052604081208054839290610880908490610e51565b909155506108f79050565b335f908152600360205260409020548111156108d35760405162461bcd60e51b815260206004820152600760248201526642414c414e434560c81b6044820152606401610302565b335f90815260036020526040812080548392906108f1908490610e51565b90915550505b60405163a9059cbb60e01b8152336004820152602481018290526001600160a01b0383169063a9059cbb906044016020604051808303815f875af1158015610941573d5f803e3d5ffd5b505050506040513d601f19601f820116820180604052508101906109659190610dd5565b6109a05760405162461bcd60e51b815260206004820152600c60248201526b1514905394d1915497d3d55560a21b6044820152606401610302565b604080516001600160a01b03841681526020810183905233917fd1c19fbcd4551a5edfb66d43d2e337c04837afda3482b42bdf569a8fccdae5fb9101610525565b6001546001600160a01b0382165f9081526003602052604081205490918291670de0b6b3a764000091610a1391610e1b565b610a1d9190610e32565b6001600160a01b0384165f90815260026020526040902054909150610a43908290610e08565b9392505050565b612710610a578284610e08565b14610a8e5760405162461bcd60e51b81526020600482015260076024820152664250535f53554d60c81b6044820152606401610302565b611b58811115610acb5760405162461bcd60e51b815260206004820152600860248201526705249534b5f4341560c41b6044820152606401610302565b5f610ad5846109e1565b90505f8111610b0e5760405162461bcd60e51b8152602060048201526005602482015264454d50545960d81b6044820152606401610302565b5f612710610b1c8584610e1b565b610b269190610e32565b90505f610b338284610e51565b90505f600154670de0b6b3a764000083610b4d9190610e1b565b610b579190610e32565b6001600160a01b0388165f908152600260209081526040808320879055600390915290208190559050610baa7f000000000000000000000000000000000000000000000000000000000000000084610c28565b610bd47f000000000000000000000000000000000000000000000000000000000000000082610c28565b6040805187815260208101879052428183015290516001600160a01b038916917fa153fe3e7bb051c8b0ee4ed92f699b709a5db8f38a1e67a30f9784c7b66a1d65919081900360600190a250505050505050565b6040516370a0823160e01b81523060048201525f906001600160a01b038416906370a0823190602401602060405180830381865afa158015610c6c573d5f803e3d5ffd5b505050506040513d601f19601f82011682018060405250810190610c909190610e64565b905081811015610591576001600160a01b0383166340c10f1930610cb48486610e51565b6040516001600160e01b031960e085901b1681526001600160a01b03909216600483015260248201526044015f604051808303815f87803b158015610cf7575f80fd5b505af1158015610d09573d5f803e3d5ffd5b50505050505050565b80356001600160a01b0381168114610d28575f80fd5b919050565b5f8060408385031215610d3e575f80fd5b610d4783610d12565b946020939093013593505050565b5f60208284031215610d65575f80fd5b610a4382610d12565b5f805f60608486031215610d80575f80fd5b610d8984610d12565b95602085013595506040909401359392505050565b5f60208284031215610dae575f80fd5b5035919050565b5f8060408385031215610dc6575f80fd5b50508035926020909101359150565b5f60208284031215610de5575f80fd5b81518015158114610a43575f80fd5b634e487b7160e01b5f52601160045260245ffd5b8082018082111561053b5761053b610df4565b808202811582820484141761053b5761053b610df4565b5f82610e4c57634e487b7160e01b5f52601260045260245ffd5b500490565b8181038181111561053b5761053b610df4565b5f60208284031215610e74575f80fd5b505191905056fea26469706673582212203db2802b60e8010ef15e4e18f37318526a5d5b3024173dcf1cee98133088da2864736f6c63430008180033","linkReferences":{}},"methodIdentifiers":{"MAX_RISK_BPS()":"6aaaa877","deposit(address,uint256)":"47e7ef24","getPortfolio(address)":"eb22ae11","getTotalValue(address)":"68637549","meth()":"3c9b1f5b","methBalanceOf(address)":"9e01aec9","methPriceE18()":"cf63c6f3","methToken()":"812b6883","owner()":"8da5cb5b","rebalance(uint256,uint256)":"df8879b8","rebalanceFor(address,uint256,uint256)":"7b0f521d","setMethPrice(uint256)":"90ff5725","usdy()":"98d506e9","usdyBalanceOf(address)":"4d9f43cc","usdyToken()":"6f019e4b","withdraw(address,uint256)":"f3fef3a3"},"id":2}