{"abi":[{"type":"constructor","inputs":[{"name":"_usdy","type":"address","internalType":"address"},{"name":"_meth","type":"address","internalType":"address"},{"name":"_amm","type":"address","internalType":"address"}],"stateMutability":"nonpayable"},{"type":"function","name":"MAX_RISK_BPS","inputs":[],"outputs":[{"name":"","type":"uint256","internalType":"uint256"}],"stateMutability":"view"},{"type":"function","name":"amm","inputs":[],"outputs":[{"name":"","type":"address","internalType":"contract IRWAkinsAMM"}],"stateMutability":"view"},{"type":"function","name":"deposit","inputs":[{"name":"asset","type":"address","internalType":"address"},{"name":"amount","type":"uint256","internalType":"uint256"}],"outputs":[],"stateMutability":"nonpayable"},{"type":"function","name":"getPortfolio","inputs":[{"name":"user","type":"address","internalType":"address"}],"outputs":[{"name":"usdyBal","type":"uint256","internalType":"uint256"},{"name":"methBal","type":"uint256","internalType":"uint256"},{"name":"usdyBps","type":"uint256","internalType":"uint256"},{"name":"methBps","type":"uint256","internalType":"uint256"}],"stateMutability":"view"},{"type":"function","name":"getTotalValue","inputs":[{"name":"user","type":"address","internalType":"address"}],"outputs":[{"name":"","type":"uint256","internalType":"uint256"}],"stateMutability":"view"},{"type":"function","name":"meth","inputs":[],"outputs":[{"name":"","type":"address","internalType":"address"}],"stateMutability":"view"},{"type":"function","name":"methBalanceOf","inputs":[{"name":"","type":"address","internalType":"address"}],"outputs":[{"name":"","type":"uint256","internalType":"uint256"}],"stateMutability":"view"},{"type":"function","name":"methPriceE18","inputs":[],"outputs":[{"name":"","type":"uint256","internalType":"uint256"}],"stateMutability":"view"},{"type":"function","name":"methToken","inputs":[],"outputs":[{"name":"","type":"address","internalType":"contract IMockRWAToken"}],"stateMutability":"view"},{"type":"function","name":"owner","inputs":[],"outputs":[{"name":"","type":"address","internalType":"address"}],"stateMutability":"view"},{"type":"function","name":"rebalance","inputs":[{"name":"usdyBps","type":"uint256","internalType":"uint256"},{"name":"methBps","type":"uint256","internalType":"uint256"}],"outputs":[],"stateMutability":"nonpayable"},{"type":"function","name":"rebalanceFor","inputs":[{"name":"user","type":"address","internalType":"address"},{"name":"usdyBps","type":"uint256","internalType":"uint256"},{"name":"methBps","type":"uint256","internalType":"uint256"}],"outputs":[],"stateMutability":"nonpayable"},{"type":"function","name":"usdy","inputs":[],"outputs":[{"name":"","type":"address","internalType":"address"}],"stateMutability":"view"},{"type":"function","name":"usdyBalanceOf","inputs":[{"name":"","type":"address","internalType":"address"}],"outputs":[{"name":"","type":"uint256","internalType":"uint256"}],"stateMutability":"view"},{"type":"function","name":"usdyToken","inputs":[],"outputs":[{"name":"","type":"address","internalType":"contract IMockRWAToken"}],"stateMutability":"view"},{"type":"function","name":"withdraw","inputs":[{"name":"asset","type":"address","internalType":"address"},{"name":"amount","type":"uint256","internalType":"uint256"}],"outputs":[],"stateMutability":"nonpayable"},{"type":"event","name":"Deposited","inputs":[{"name":"user","type":"address","indexed":true,"internalType":"address"},{"name":"asset","type":"address","indexed":false,"internalType":"address"},{"name":"amount","type":"uint256","indexed":false,"internalType":"uint256"}],"anonymous":false},{"type":"event","name":"Rebalanced","inputs":[{"name":"user","type":"address","indexed":true,"internalType":"address"},{"name":"usdyBps","type":"uint256","indexed":false,"internalType":"uint256"},{"name":"methBps","type":"uint256","indexed":false,"internalType":"uint256"},{"name":"timestamp","type":"uint256","indexed":false,"internalType":"uint256"}],"anonymous":false},{"type":"event","name":"Withdrawn","inputs":[{"name":"user","type":"address","indexed":true,"internalType":"address"},{"name":"asset","type":"address","indexed":false,"internalType":"address"},{"name":"amount","type":"uint256","indexed":false,"internalType":"uint256"}],"anonymous":false}],"bytecode":{"object":"0x60e060405234801562000010575f80fd5b5060405162001435380380620014358339810160408190526200003391620001db565b6001600160a01b038316158015906200005457506001600160a01b03821615155b80156200006957506001600160a01b03811615155b620000a65760405162461bcd60e51b81526020600482015260096024820152682d22a927afa0a2222960b91b604482015260640160405180910390fd5b6001600160a01b03838116608081905283821660a05290821660c08190525f80546001600160a01b0319163317905560405163095ea7b360e01b815260048101919091525f19602482015263095ea7b3906044016020604051808303815f875af115801562000117573d5f803e3d5ffd5b505050506040513d601f19601f820116820180604052508101906200013d919062000222565b5060a05160405163095ea7b360e01b81526001600160a01b0383811660048301525f1960248301529091169063095ea7b3906044016020604051808303815f875af11580156200018f573d5f803e3d5ffd5b505050506040513d601f19601f82011682018060405250810190620001b5919062000222565b505050506200024a565b80516001600160a01b0381168114620001d6575f80fd5b919050565b5f805f60608486031215620001ee575f80fd5b620001f984620001bf565b92506200020960208501620001bf565b91506200021960408501620001bf565b90509250925092565b5f6020828403121562000233575f80fd5b8151801515811462000243575f80fd5b9392505050565b60805160a05160c051611150620002e55f395f8181610104015281816105b00152818161069301528181610a4b01528181610ba601528181610d690152610ebc01525f8181610145015281816102060152818161035f015281816107d20152610e7e01525f81816101cc0152818161023c015281816103240152818161047b01528181610797015281816108400152610d2901526111505ff3fe608060405234801561000f575f80fd5b50600436106100fb575f3560e01c8063812b688311610093578063cf63c6f311610063578063cf63c6f31461027f578063df8879b814610287578063eb22ae111461029a578063f3fef3a3146102cd575f80fd5b8063812b6883146102015780638da5cb5b1461022857806398d506e91461023a5780639e01aec914610260575f80fd5b806368637549116100ce57806368637549146101ab5780636aaaa877146101be5780636f019e4b146101c75780637b0f521d146101ee575f80fd5b80632a943945146100ff5780633c9b1f5b1461014357806347e7ef24146101695780634d9f43cc1461017e575b5f80fd5b6101267f000000000000000000000000000000000000000000000000000000000000000081565b6040516001600160a01b0390911681526020015b60405180910390f35b7f0000000000000000000000000000000000000000000000000000000000000000610126565b61017c610177366004610fe3565b6102e0565b005b61019d61018c36600461100b565b60016020525f908152604090205481565b60405190815260200161013a565b61019d6101b936600461100b565b610548565b61019d611b5881565b6101267f000000000000000000000000000000000000000000000000000000000000000081565b61017c6101fc366004611024565b610558565b6101267f000000000000000000000000000000000000000000000000000000000000000081565b5f54610126906001600160a01b031681565b7f0000000000000000000000000000000000000000000000000000000000000000610126565b61019d61026e36600461100b565b60026020525f908152604090205481565b61019d6105ad565b61017c610295366004611054565b610633565b6102ad6102a836600461100b565b610642565b60408051948552602085019390935291830152606082015260800161013a565b61017c6102db366004610fe3565b610758565b5f81116103225760405162461bcd60e51b815260206004820152600b60248201526a16915493d7d05353d5539560aa1b60448201526064015b60405180910390fd5b7f00000000000000000000000000000000000000000000000000000000000000006001600160a01b0316826001600160a01b0316148061039357507f00000000000000000000000000000000000000000000000000000000000000006001600160a01b0316826001600160a01b0316145b6103cb5760405162461bcd60e51b815260206004820152600960248201526810905117d054d4d15560ba1b6044820152606401610319565b6040516323b872dd60e01b8152336004820152306024820152604481018290526001600160a01b038316906323b872dd906064016020604051808303815f875af115801561041b573d5f803e3d5ffd5b505050506040513d601f19601f8201168201806040525081019061043f9190611074565b6104795760405162461bcd60e51b815260206004820152600b60248201526a2a2920a729a322a92fa4a760a91b6044820152606401610319565b7f00000000000000000000000000000000000000000000000000000000000000006001600160a01b0316826001600160a01b0316036104db57335f90815260016020526040812080548392906104d09084906110a7565b909155506104ff9050565b335f90815260026020526040812080548392906104f99084906110a7565b90915550505b604080516001600160a01b03841681526020810183905233917f8752a472e571a816aea92eec8dae9baf628e840f4929fbcc2d155e6233ff68a791015b60405180910390a25050565b5f61055282610a3e565b92915050565b5f546001600160a01b0316331461059d5760405162461bcd60e51b81526020600482015260096024820152682727aa2fa7aba722a960b91b6044820152606401610319565b6105a8838383610b22565b505050565b5f7f00000000000000000000000000000000000000000000000000000000000000006001600160a01b03166340f7bda56040518163ffffffff1660e01b8152600401602060405180830381865afa15801561060a573d5f803e3d5ffd5b505050506040513d601f19601f8201168201806040525081019061062e91906110ba565b905090565b61063e338383610b22565b5050565b6001600160a01b0381165f9081526001602090815260408083205460029092528220549091808061067286610a3e565b9050805f0361068757505f9150819050610751565b5f670de0b6b3a76400007f00000000000000000000000000000000000000000000000000000000000000006001600160a01b03166340f7bda56040518163ffffffff1660e01b8152600401602060405180830381865afa1580156106ed573d5f803e3d5ffd5b505050506040513d601f19601f8201168201806040525081019061071191906110ba565b61071b90876110d1565b61072591906110e8565b905081610734612710836110d1565b61073e91906110e8565b925061074c83612710611107565b935050505b9193509193565b5f81116107955760405162461bcd60e51b815260206004820152600b60248201526a16915493d7d05353d5539560aa1b6044820152606401610319565b7f00000000000000000000000000000000000000000000000000000000000000006001600160a01b0316826001600160a01b0316148061080657507f00000000000000000000000000000000000000000000000000000000000000006001600160a01b0316826001600160a01b0316145b61083e5760405162461bcd60e51b815260206004820152600960248201526810905117d054d4d15560ba1b6044820152606401610319565b7f00000000000000000000000000000000000000000000000000000000000000006001600160a01b0316826001600160a01b0316036108e857335f908152600160205260409020548111156108bf5760405162461bcd60e51b815260206004820152600760248201526642414c414e434560c81b6044820152606401610319565b335f90815260016020526040812080548392906108dd908490611107565b909155506109549050565b335f908152600260205260409020548111156109305760405162461bcd60e51b815260206004820152600760248201526642414c414e434560c81b6044820152606401610319565b335f908152600260205260408120805483929061094e908490611107565b90915550505b60405163a9059cbb60e01b8152336004820152602481018290526001600160a01b0383169063a9059cbb906044016020604051808303815f875af115801561099e573d5f803e3d5ffd5b505050506040513d601f19601f820116820180604052508101906109c29190611074565b6109fd5760405162461bcd60e51b815260206004820152600c60248201526b1514905394d1915497d3d55560a21b6044820152606401610319565b604080516001600160a01b03841681526020810183905233917fd1c19fbcd4551a5edfb66d43d2e337c04837afda3482b42bdf569a8fccdae5fb910161053c565b5f80670de0b6b3a76400007f00000000000000000000000000000000000000000000000000000000000000006001600160a01b03166340f7bda56040518163ffffffff1660e01b8152600401602060405180830381865afa158015610aa5573d5f803e3d5ffd5b505050506040513d601f19601f82011682018060405250810190610ac991906110ba565b6001600160a01b0385165f90815260026020526040902054610aeb91906110d1565b610af591906110e8565b6001600160a01b0384165f90815260016020526040902054909150610b1b9082906110a7565b9392505050565b612710610b2f82846110a7565b14610b665760405162461bcd60e51b81526020600482015260076024820152664250535f53554d60c81b6044820152606401610319565b611b58811115610ba35760405162461bcd60e51b815260206004820152600860248201526705249534b5f4341560c41b6044820152606401610319565b5f7f00000000000000000000000000000000000000000000000000000000000000006001600160a01b03166340f7bda56040518163ffffffff1660e01b8152600401602060405180830381865afa158015610c00573d5f803e3d5ffd5b505050506040513d601f19601f82011682018060405250810190610c2491906110ba565b90505f8111610c605760405162461bcd60e51b81526020600482015260086024820152674e4f5f505249434560c01b6044820152606401610319565b6001600160a01b0384165f9081526001602090815260408083205460029092528220549091670de0b6b3a7640000610c9885846110d1565b610ca291906110e8565b610cac90846110a7565b90505f8111610ce55760405162461bcd60e51b8152602060048201526005602482015264454d50545960d81b6044820152606401610319565b5f612710610cf388846110d1565b610cfd91906110e8565b905083811015610e21575f610d128286611107565b6040516379f3754560e11b81526001600160a01b037f000000000000000000000000000000000000000000000000000000000000000081166004830152602482018390525f604483018190523060648401529293507f0000000000000000000000000000000000000000000000000000000000000000169063f3e6ea8a906084016020604051808303815f875af1158015610daf573d5f803e3d5ffd5b505050506040513d601f19601f82011682018060405250810190610dd391906110ba565b9050610ddf8287611107565b6001600160a01b038b165f90815260016020526040902055610e0181866110a7565b6001600160a01b038b165f9081526002602052604090205550610f739050565b83811115610f73575f610e348583611107565b90505f86610e4a670de0b6b3a7640000846110d1565b610e5491906110e8565b905084811115610e615750835b8015610f70576040516379f3754560e11b81526001600160a01b037f000000000000000000000000000000000000000000000000000000000000000081166004830152602482018390525f60448301819052306064840152917f00000000000000000000000000000000000000000000000000000000000000009091169063f3e6ea8a906084016020604051808303815f875af1158015610f04573d5f803e3d5ffd5b505050506040513d601f19601f82011682018060405250810190610f2891906110ba565b9050610f348287611107565b6001600160a01b038c165f90815260026020526040902055610f5681886110a7565b6001600160a01b038c165f90815260016020526040902055505b50505b6040805188815260208101889052428183015290516001600160a01b038a16917fa153fe3e7bb051c8b0ee4ed92f699b709a5db8f38a1e67a30f9784c7b66a1d65919081900360600190a25050505050505050565b80356001600160a01b0381168114610fde575f80fd5b919050565b5f8060408385031215610ff4575f80fd5b610ffd83610fc8565b946020939093013593505050565b5f6020828403121561101b575f80fd5b610b1b82610fc8565b5f805f60608486031215611036575f80fd5b61103f84610fc8565b95602085013595506040909401359392505050565b5f8060408385031215611065575f80fd5b50508035926020909101359150565b5f60208284031215611084575f80fd5b81518015158114610b1b575f80fd5b634e487b7160e01b5f52601160045260245ffd5b8082018082111561055257610552611093565b5f602082840312156110ca575f80fd5b5051919050565b808202811582820484141761055257610552611093565b5f8261110257634e487b7160e01b5f52601260045260245ffd5b500490565b818103818111156105525761055261109356fea2646970667358221220a457fd911ed03e314482d27ed32ba45b6c410607e5288e347ca33cb401ecba5c64736f6c63430008180033","linkReferences":{}},"methodIdentifiers":{"MAX_RISK_BPS()":"6aaaa877","amm()":"2a943945","deposit(address,uint256)":"47e7ef24","getPortfolio(address)":"eb22ae11","getTotalValue(address)":"68637549","meth()":"3c9b1f5b","methBalanceOf(address)":"9e01aec9","methPriceE18()":"cf63c6f3","methToken()":"812b6883","owner()":"8da5cb5b","rebalance(uint256,uint256)":"df8879b8","rebalanceFor(address,uint256,uint256)":"7b0f521d","usdy()":"98d506e9","usdyBalanceOf(address)":"4d9f43cc","usdyToken()":"6f019e4b","withdraw(address,uint256)":"f3fef3a3"},"id":3}