{"abi":[{"type":"constructor","inputs":[{"name":"_usdy","type":"address","internalType":"address"},{"name":"_meth","type":"address","internalType":"address"}],"stateMutability":"nonpayable"},{"type":"function","name":"addLiquidity","inputs":[{"name":"usdyAmount","type":"uint256","internalType":"uint256"},{"name":"methAmount","type":"uint256","internalType":"uint256"}],"outputs":[],"stateMutability":"nonpayable"},{"type":"function","name":"getAmountOut","inputs":[{"name":"tokenIn","type":"address","internalType":"address"},{"name":"amountIn","type":"uint256","internalType":"uint256"}],"outputs":[{"name":"","type":"uint256","internalType":"uint256"}],"stateMutability":"view"},{"type":"function","name":"getReserves","inputs":[],"outputs":[{"name":"","type":"uint256","internalType":"uint256"},{"name":"","type":"uint256","internalType":"uint256"}],"stateMutability":"view"},{"type":"function","name":"meth","inputs":[],"outputs":[{"name":"","type":"address","internalType":"contract IERC20Mintable"}],"stateMutability":"view"},{"type":"function","name":"owner","inputs":[],"outputs":[{"name":"","type":"address","internalType":"address"}],"stateMutability":"view"},{"type":"function","name":"reserveMeth","inputs":[],"outputs":[{"name":"","type":"uint256","internalType":"uint256"}],"stateMutability":"view"},{"type":"function","name":"reserveUsdy","inputs":[],"outputs":[{"name":"","type":"uint256","internalType":"uint256"}],"stateMutability":"view"},{"type":"function","name":"spotPriceE18","inputs":[],"outputs":[{"name":"","type":"uint256","internalType":"uint256"}],"stateMutability":"view"},{"type":"function","name":"swap","inputs":[{"name":"tokenIn","type":"address","internalType":"address"},{"name":"amountIn","type":"uint256","internalType":"uint256"},{"name":"minOut","type":"uint256","internalType":"uint256"},{"name":"to","type":"address","internalType":"address"}],"outputs":[{"name":"amountOut","type":"uint256","internalType":"uint256"}],"stateMutability":"nonpayable"},{"type":"function","name":"syncToPrice","inputs":[{"name":"targetPriceE18","type":"uint256","internalType":"uint256"}],"outputs":[],"stateMutability":"nonpayable"},{"type":"function","name":"usdy","inputs":[],"outputs":[{"name":"","type":"address","internalType":"contract IERC20Mintable"}],"stateMutability":"view"},{"type":"event","name":"LiquidityAdded","inputs":[{"name":"usdyAmount","type":"uint256","indexed":false,"internalType":"uint256"},{"name":"methAmount","type":"uint256","indexed":false,"internalType":"uint256"}],"anonymous":false},{"type":"event","name":"Swap","inputs":[{"name":"caller","type":"address","indexed":true,"internalType":"address"},{"name":"tokenIn","type":"address","indexed":false,"internalType":"address"},{"name":"amountIn","type":"uint256","indexed":false,"internalType":"uint256"},{"name":"amountOut","type":"uint256","indexed":false,"internalType":"uint256"}],"anonymous":false},{"type":"event","name":"Synced","inputs":[{"name":"spotPriceE18","type":"uint256","indexed":false,"internalType":"uint256"}],"anonymous":false}],"bytecode":{"object":"0x60c060405234801561000f575f80fd5b5060405161133138038061133183398101604081905261002e916100cd565b6001600160a01b0382161580159061004e57506001600160a01b03811615155b61008a5760405162461bcd60e51b81526020600482015260096024820152682d22a927afa0a2222960b91b604482015260640160405180910390fd5b6001600160a01b039182166080521660a0525f80546001600160a01b031916331790556100fe565b80516001600160a01b03811681146100c8575f80fd5b919050565b5f80604083850312156100de575f80fd5b6100e7836100b2565b91506100f5602084016100b2565b90509250929050565b60805160a05161118e6101a35f395f818160cf01528181610331015281816104770152818161057a0152818161099001528181610ac501528181610b3c01528181610baa0152610e5901525f818161013f01528181610261015281816103ee0152818161052b015281816106f901528181610776015281816108180152818161090701528181610a8701528181610b5d01528181610b890152610dd0015261118e5ff3fe608060405234801561000f575f80fd5b50600436106100a6575f3560e01c806398d506e91161006e57806398d506e91461013a5780639cd441da14610161578063ca706bcf14610176578063d6e0102d14610189578063f3e6ea8a1461019c578063f7ec9517146101af575f80fd5b80630902f1ac146100aa5780633c9b1f5b146100ca57806340f7bda5146101095780636c5ffeb21461011f5780638da5cb5b14610128575b5f80fd5b600154600254604080519283526020830191909152015b60405180910390f35b6100f17f000000000000000000000000000000000000000000000000000000000000000081565b6040516001600160a01b0390911681526020016100c1565b6101116101b8565b6040519081526020016100c1565b61011160015481565b5f546100f1906001600160a01b031681565b6100f17f000000000000000000000000000000000000000000000000000000000000000081565b61017461016f366004610fee565b6101ef565b005b610111610184366004611029565b610528565b610174610197366004611051565b6105fa565b6101116101aa366004611068565b610a43565b61011160025481565b5f6002545f036101c757505f90565b600254670de0b6b3a76400006001546101e091906110bf565b6101ea91906110d6565b905090565b5f546001600160a01b031633146102395760405162461bcd60e51b81526020600482015260096024820152682727aa2fa7aba722a960b91b60448201526064015b60405180910390fd5b8115610309576040516323b872dd60e01b8152336004820152306024820152604481018390527f00000000000000000000000000000000000000000000000000000000000000006001600160a01b0316906323b872dd906064016020604051808303815f875af11580156102af573d5f803e3d5ffd5b505050506040513d601f19601f820116820180604052508101906102d391906110f5565b6103095760405162461bcd60e51b8152602060048201526007602482015266494e5f5553445960c81b6044820152606401610230565b80156103d9576040516323b872dd60e01b8152336004820152306024820152604481018290527f00000000000000000000000000000000000000000000000000000000000000006001600160a01b0316906323b872dd906064016020604051808303815f875af115801561037f573d5f803e3d5ffd5b505050506040513d601f19601f820116820180604052508101906103a391906110f5565b6103d95760405162461bcd60e51b81526020600482015260076024820152660929cbe9a8aa8960cb1b6044820152606401610230565b6040516370a0823160e01b81523060048201527f00000000000000000000000000000000000000000000000000000000000000006001600160a01b0316906370a0823190602401602060405180830381865afa15801561043b573d5f803e3d5ffd5b505050506040513d601f19601f8201168201806040525081019061045f919061111b565b6001556040516370a0823160e01b81523060048201527f00000000000000000000000000000000000000000000000000000000000000006001600160a01b0316906370a0823190602401602060405180830381865afa1580156104c4573d5f803e3d5ffd5b505050506040513d601f19601f820116820180604052508101906104e8919061111b565b60025560408051838152602081018390527f38f8a0c92f4c5b0b6877f878cb4c0c8d348a47b76d716c8e78f425043df9515b910160405180910390a15050565b5f7f00000000000000000000000000000000000000000000000000000000000000006001600160a01b0316836001600160a01b0316036105785761057182600154600254610f26565b90506105f4565b7f00000000000000000000000000000000000000000000000000000000000000006001600160a01b0316836001600160a01b0316036105c05761057182600254600154610f26565b60405162461bcd60e51b81526020600482015260096024820152682120a22faa27a5a2a760b91b6044820152606401610230565b92915050565b5f546001600160a01b0316331461063f5760405162461bcd60e51b81526020600482015260096024820152682727aa2fa7aba722a960b91b6044820152606401610230565b5f811161067b5760405162461bcd60e51b815260206004820152600a6024820152695a45524f5f505249434560b01b6044820152606401610230565b5f600254116106b55760405162461bcd60e51b81526020600482015260066024820152654e4f5f4c495160d01b6044820152606401610230565b5f670de0b6b3a7640000826002546106cd91906110bf565b6106d791906110d6565b6040516370a0823160e01b81523060048201529091505f906001600160a01b037f000000000000000000000000000000000000000000000000000000000000000016906370a0823190602401602060405180830381865afa15801561073e573d5f803e3d5ffd5b505050506040513d601f19601f82011682018060405250810190610762919061111b565b905080821115610804576001600160a01b037f0000000000000000000000000000000000000000000000000000000000000000166340c10f19306107a68486611132565b6040516001600160e01b031960e085901b1681526001600160a01b03909216600483015260248201526044015f604051808303815f87803b1580156107e9575f80fd5b505af11580156107fb573d5f803e3d5ffd5b505050506108f2565b808210156108f2575f546001600160a01b037f000000000000000000000000000000000000000000000000000000000000000081169163a9059cbb911661084b8585611132565b6040516001600160e01b031960e085901b1681526001600160a01b03909216600483015260248201526044016020604051808303815f875af1158015610893573d5f803e3d5ffd5b505050506040513d601f19601f820116820180604052508101906108b791906110f5565b6108f25760405162461bcd60e51b815260206004820152600c60248201526b1514905394d1915497d3d55560a21b6044820152606401610230565b6040516370a0823160e01b81523060048201527f00000000000000000000000000000000000000000000000000000000000000006001600160a01b0316906370a0823190602401602060405180830381865afa158015610954573d5f803e3d5ffd5b505050506040513d601f19601f82011682018060405250810190610978919061111b565b6001556040516370a0823160e01b81523060048201527f00000000000000000000000000000000000000000000000000000000000000006001600160a01b0316906370a0823190602401602060405180830381865afa1580156109dd573d5f803e3d5ffd5b505050506040513d601f19601f82011682018060405250810190610a01919061111b565b6002557fff14d8520387b9b85d2a017dc41ae15db04a22d4c67deac04eb45048631ffa86610a2d6101b8565b60405190815260200160405180910390a1505050565b5f6001600160a01b038216610a845760405162461bcd60e51b81526020600482015260076024820152665a45524f5f544f60c81b6044820152606401610230565b5f7f00000000000000000000000000000000000000000000000000000000000000006001600160a01b0316866001600160a01b03161490508080610af957507f00000000000000000000000000000000000000000000000000000000000000006001600160a01b0316866001600160a01b0316145b610b315760405162461bcd60e51b81526020600482015260096024820152682120a22faa27a5a2a760b91b6044820152606401610230565b5f805f8084610b87577f00000000000000000000000000000000000000000000000000000000000000007f0000000000000000000000000000000000000000000000000000000000000000600254600154610bd0565b7f00000000000000000000000000000000000000000000000000000000000000007f00000000000000000000000000000000000000000000000000000000000000006001546002545b9350935093509350610be3898383610f26565b955087861015610c205760405162461bcd60e51b8152602060048201526008602482015267534c49505041474560c01b6044820152606401610230565b808610610c625760405162461bcd60e51b815260206004820152601060248201526f494e53554646494349454e545f4c495160801b6044820152606401610230565b6040516323b872dd60e01b8152336004820152306024820152604481018a90526001600160a01b038516906323b872dd906064016020604051808303815f875af1158015610cb2573d5f803e3d5ffd5b505050506040513d601f19601f82011682018060405250810190610cd691906110f5565b610d105760405162461bcd60e51b815260206004820152600b60248201526a2a2920a729a322a92fa4a760a91b6044820152606401610230565b60405163a9059cbb60e01b81526001600160a01b0388811660048301526024820188905284169063a9059cbb906044016020604051808303815f875af1158015610d5c573d5f803e3d5ffd5b505050506040513d601f19601f82011682018060405250810190610d8091906110f5565b610dbb5760405162461bcd60e51b815260206004820152600c60248201526b1514905394d1915497d3d55560a21b6044820152606401610230565b6040516370a0823160e01b81523060048201527f00000000000000000000000000000000000000000000000000000000000000006001600160a01b0316906370a0823190602401602060405180830381865afa158015610e1d573d5f803e3d5ffd5b505050506040513d601f19601f82011682018060405250810190610e41919061111b565b6001556040516370a0823160e01b81523060048201527f00000000000000000000000000000000000000000000000000000000000000006001600160a01b0316906370a0823190602401602060405180830381865afa158015610ea6573d5f803e3d5ffd5b505050506040513d601f19601f82011682018060405250810190610eca919061111b565b600255604080516001600160a01b038c168152602081018b905290810187905233907ffa2dda1cc1b86e41239702756b13effbc1a092b5c57e3ad320fbe4f3b13fe2359060600160405180910390a25050505050949350505050565b5f808411610f605760405162461bcd60e51b81526020600482015260076024820152662d22a927afa4a760c91b6044820152606401610230565b5f83118015610f6e57505f82115b610fa35760405162461bcd60e51b81526020600482015260066024820152654e4f5f4c495160d01b6044820152606401610230565b5f610fb06103e5866110bf565b90505f610fbd84836110bf565b90505f82610fcd6103e8886110bf565b610fd79190611145565b9050610fe381836110d6565b979650505050505050565b5f8060408385031215610fff575f80fd5b50508035926020909101359150565b80356001600160a01b0381168114611024575f80fd5b919050565b5f806040838503121561103a575f80fd5b6110438361100e565b946020939093013593505050565b5f60208284031215611061575f80fd5b5035919050565b5f805f806080858703121561107b575f80fd5b6110848561100e565b935060208501359250604085013591506110a06060860161100e565b905092959194509250565b634e487b7160e01b5f52601160045260245ffd5b80820281158282048414176105f4576105f46110ab565b5f826110f057634e487b7160e01b5f52601260045260245ffd5b500490565b5f60208284031215611105575f80fd5b81518015158114611114575f80fd5b9392505050565b5f6020828403121561112b575f80fd5b5051919050565b818103818111156105f4576105f46110ab565b808201808211156105f4576105f46110ab56fea264697066735822122008f3c03a24a16c29b6b5ced5778a5ccacbcdcd42f7909b095910c0e53ed3dae764736f6c63430008180033","linkReferences":{}},"methodIdentifiers":{"addLiquidity(uint256,uint256)":"9cd441da","getAmountOut(address,uint256)":"ca706bcf","getReserves()":"0902f1ac","meth()":"3c9b1f5b","owner()":"8da5cb5b","reserveMeth()":"f7ec9517","reserveUsdy()":"6c5ffeb2","spotPriceE18()":"40f7bda5","swap(address,uint256,uint256,address)":"f3e6ea8a","syncToPrice(uint256)":"d6e0102d","usdy()":"98d506e9"},"id":1}