{
  "_format": "hh3-artifact-1",
  "contractName": "Recibo",
  "sourceName": "contracts/Recibo.sol",
  "abi": [
    {
      "inputs": [
        {
          "internalType": "address",
          "name": "_usdc",
          "type": "address"
        }
      ],
      "stateMutability": "nonpayable",
      "type": "constructor"
    },
    {
      "inputs": [],
      "name": "AlreadyPaid",
      "type": "error"
    },
    {
      "inputs": [],
      "name": "InvoiceDoesNotExist",
      "type": "error"
    },
    {
      "inputs": [],
      "name": "ReentrancyGuardReentrantCall",
      "type": "error"
    },
    {
      "inputs": [],
      "name": "TransferFailed",
      "type": "error"
    },
    {
      "inputs": [],
      "name": "ZeroAddress",
      "type": "error"
    },
    {
      "anonymous": false,
      "inputs": [
        {
          "indexed": true,
          "internalType": "bytes32",
          "name": "invoiceId",
          "type": "bytes32"
        },
        {
          "indexed": true,
          "internalType": "address",
          "name": "freelancer",
          "type": "address"
        },
        {
          "indexed": false,
          "internalType": "string",
          "name": "clientName",
          "type": "string"
        },
        {
          "indexed": false,
          "internalType": "uint256",
          "name": "amount",
          "type": "uint256"
        },
        {
          "indexed": false,
          "internalType": "uint256",
          "name": "dueDate",
          "type": "uint256"
        }
      ],
      "name": "InvoiceCreated",
      "type": "event"
    },
    {
      "anonymous": false,
      "inputs": [
        {
          "indexed": true,
          "internalType": "bytes32",
          "name": "invoiceId",
          "type": "bytes32"
        },
        {
          "indexed": true,
          "internalType": "address",
          "name": "payer",
          "type": "address"
        },
        {
          "indexed": true,
          "internalType": "address",
          "name": "freelancer",
          "type": "address"
        },
        {
          "indexed": false,
          "internalType": "uint256",
          "name": "amount",
          "type": "uint256"
        },
        {
          "indexed": false,
          "internalType": "uint256",
          "name": "timestamp",
          "type": "uint256"
        }
      ],
      "name": "InvoicePaid",
      "type": "event"
    },
    {
      "inputs": [
        {
          "internalType": "bytes32",
          "name": "invoiceId",
          "type": "bytes32"
        },
        {
          "internalType": "string",
          "name": "clientName",
          "type": "string"
        },
        {
          "internalType": "uint256",
          "name": "amount",
          "type": "uint256"
        },
        {
          "internalType": "string",
          "name": "description",
          "type": "string"
        },
        {
          "internalType": "uint256",
          "name": "dueDate",
          "type": "uint256"
        }
      ],
      "name": "createInvoice",
      "outputs": [],
      "stateMutability": "nonpayable",
      "type": "function"
    },
    {
      "inputs": [
        {
          "internalType": "bytes32",
          "name": "invoiceId",
          "type": "bytes32"
        }
      ],
      "name": "getInvoice",
      "outputs": [
        {
          "components": [
            {
              "internalType": "bytes32",
              "name": "id",
              "type": "bytes32"
            },
            {
              "internalType": "string",
              "name": "clientName",
              "type": "string"
            },
            {
              "internalType": "address",
              "name": "freelancer",
              "type": "address"
            },
            {
              "internalType": "uint256",
              "name": "amount",
              "type": "uint256"
            },
            {
              "internalType": "string",
              "name": "description",
              "type": "string"
            },
            {
              "internalType": "uint256",
              "name": "dueDate",
              "type": "uint256"
            },
            {
              "internalType": "enum Recibo.InvoiceStatus",
              "name": "status",
              "type": "uint8"
            },
            {
              "internalType": "uint256",
              "name": "createdAt",
              "type": "uint256"
            }
          ],
          "internalType": "struct Recibo.Invoice",
          "name": "",
          "type": "tuple"
        }
      ],
      "stateMutability": "view",
      "type": "function"
    },
    {
      "inputs": [
        {
          "internalType": "bytes32",
          "name": "",
          "type": "bytes32"
        }
      ],
      "name": "invoiceExists",
      "outputs": [
        {
          "internalType": "bool",
          "name": "",
          "type": "bool"
        }
      ],
      "stateMutability": "view",
      "type": "function"
    },
    {
      "inputs": [
        {
          "internalType": "bytes32",
          "name": "",
          "type": "bytes32"
        }
      ],
      "name": "invoices",
      "outputs": [
        {
          "internalType": "bytes32",
          "name": "id",
          "type": "bytes32"
        },
        {
          "internalType": "string",
          "name": "clientName",
          "type": "string"
        },
        {
          "internalType": "address",
          "name": "freelancer",
          "type": "address"
        },
        {
          "internalType": "uint256",
          "name": "amount",
          "type": "uint256"
        },
        {
          "internalType": "string",
          "name": "description",
          "type": "string"
        },
        {
          "internalType": "uint256",
          "name": "dueDate",
          "type": "uint256"
        },
        {
          "internalType": "enum Recibo.InvoiceStatus",
          "name": "status",
          "type": "uint8"
        },
        {
          "internalType": "uint256",
          "name": "createdAt",
          "type": "uint256"
        }
      ],
      "stateMutability": "view",
      "type": "function"
    },
    {
      "inputs": [
        {
          "internalType": "bytes32",
          "name": "invoiceId",
          "type": "bytes32"
        }
      ],
      "name": "payInvoice",
      "outputs": [],
      "stateMutability": "nonpayable",
      "type": "function"
    },
    {
      "inputs": [],
      "name": "usdc",
      "outputs": [
        {
          "internalType": "contract IERC20",
          "name": "",
          "type": "address"
        }
      ],
      "stateMutability": "view",
      "type": "function"
    }
  ],
  "bytecode": "0x60a060405234801562000010575f80fd5b50604051620017ae380380620017ae833981810160405281019062000036919062000196565b6001620000586200004c620000ff60201b60201c565b6200012860201b60201c565b5f01819055505f73ffffffffffffffffffffffffffffffffffffffff168173ffffffffffffffffffffffffffffffffffffffff1603620000c4576040517fd92e233d00000000000000000000000000000000000000000000000000000000815260040160405180910390fd5b8073ffffffffffffffffffffffffffffffffffffffff1660808173ffffffffffffffffffffffffffffffffffffffff168152505050620001c6565b5f7f9b779b17422d0df92223018b32b4d1fa46e071723d6817e2486d003becc55f005f1b905090565b5f819050919050565b5f80fd5b5f73ffffffffffffffffffffffffffffffffffffffff82169050919050565b5f620001608262000135565b9050919050565b620001728162000154565b81146200017d575f80fd5b50565b5f81519050620001908162000167565b92915050565b5f60208284031215620001ae57620001ad62000131565b5b5f620001bd8482850162000180565b91505092915050565b6080516115c8620001e65f395f8181610300015261049501526115c85ff3fe608060405234801561000f575f80fd5b5060043610610060575f3560e01c80631709078b14610064578063222ab347146100945780633e413bee146100b05780639396ceab146100ce578063cb802c8b146100ea578063f8a8a0761461011a575b5f80fd5b61007e60048036038101906100799190610c23565b610151565b60405161008b9190610c68565b60405180910390f35b6100ae60048036038101906100a99190610c23565b61016e565b005b6100b8610493565b6040516100c59190610cfb565b60405180910390f35b6100e860048036038101906100e39190610da8565b6104b7565b005b61010460048036038101906100ff9190610c23565b610738565b604051610111919061104e565b60405180910390f35b610134600480360381019061012f9190610c23565b610939565b6040516101489897969594939291906110f2565b60405180910390f35b6001602052805f5260405f205f915054906101000a900460ff1681565b610176610ab3565b60015f8281526020019081526020015f205f9054906101000a900460ff166101ca576040517f715d922800000000000000000000000000000000000000000000000000000000815260040160405180910390fd5b5f805f8381526020019081526020015f2090505f73ffffffffffffffffffffffffffffffffffffffff16816002015f9054906101000a900473ffffffffffffffffffffffffffffffffffffffff1673ffffffffffffffffffffffffffffffffffffffff1603610265576040517fd92e233d00000000000000000000000000000000000000000000000000000000815260040160405180910390fd5b60018081111561027857610277610f27565b5b816006015f9054906101000a900460ff16600181111561029b5761029a610f27565b5b036102d2576040517fd70a0e3000000000000000000000000000000000000000000000000000000000815260040160405180910390fd5b6001816006015f6101000a81548160ff021916908360018111156102f9576102f8610f27565b5b02179055507f000000000000000000000000000000000000000000000000000000000000000073ffffffffffffffffffffffffffffffffffffffff166323b872dd33836002015f9054906101000a900473ffffffffffffffffffffffffffffffffffffffff1684600301546040518463ffffffff1660e01b81526004016103829392919061117c565b6020604051808303815f875af115801561039e573d5f803e3d5ffd5b505050506040513d601f19601f820116820180604052508101906103c291906111db565b6103f8576040517f90b8ec1800000000000000000000000000000000000000000000000000000000815260040160405180910390fd5b806002015f9054906101000a900473ffffffffffffffffffffffffffffffffffffffff1673ffffffffffffffffffffffffffffffffffffffff163373ffffffffffffffffffffffffffffffffffffffff16837f9615dc2d5d2739a2b83f1e48261a6f845a996c0a54209b3044193556e74414cc84600301544260405161047f929190611206565b60405180910390a450610490610ad5565b50565b7f000000000000000000000000000000000000000000000000000000000000000081565b5f84036104f0576040517f90b8ec1800000000000000000000000000000000000000000000000000000000815260040160405180910390fd5b60405180610100016040528088815260200187878080601f0160208091040260200160405190810160405280939291908181526020018383808284375f81840152601f19601f8201169050808301925050505050505081526020013373ffffffffffffffffffffffffffffffffffffffff16815260200185815260200184848080601f0160208091040260200160405190810160405280939291908181526020018383808284375f81840152601f19601f8201169050808301925050505050505081526020018281526020015f60018111156105cf576105ce610f27565b5b8152602001428152505f808981526020019081526020015f205f820151815f01556020820151816001019081610605919061144b565b506040820151816002015f6101000a81548173ffffffffffffffffffffffffffffffffffffffff021916908373ffffffffffffffffffffffffffffffffffffffff16021790555060608201518160030155608082015181600401908161066b919061144b565b5060a0820151816005015560c0820151816006015f6101000a81548160ff021916908360018111156106a05761069f610f27565b5b021790555060e082015181600701559050506001805f8981526020019081526020015f205f6101000a81548160ff0219169083151502179055503373ffffffffffffffffffffffffffffffffffffffff16877f9d3f57c1d1cbd75e4344db7afd2ec02c0dae639a275d82375c5adb8ee32e971f888888866040516107279493929190611554565b60405180910390a350505050505050565b610740610b7e565b5f808381526020019081526020015f20604051806101000160405290815f820154815260200160018201805461077590611287565b80601f01602080910402602001604051908101604052809291908181526020018280546107a190611287565b80156107ec5780601f106107c3576101008083540402835291602001916107ec565b820191905f5260205f20905b8154815290600101906020018083116107cf57829003601f168201915b50505050508152602001600282015f9054906101000a900473ffffffffffffffffffffffffffffffffffffffff1673ffffffffffffffffffffffffffffffffffffffff1673ffffffffffffffffffffffffffffffffffffffff1681526020016003820154815260200160048201805461086490611287565b80601f016020809104026020016040519081016040528092919081815260200182805461089090611287565b80156108db5780601f106108b2576101008083540402835291602001916108db565b820191905f5260205f20905b8154815290600101906020018083116108be57829003601f168201915b5050505050815260200160058201548152602001600682015f9054906101000a900460ff16600181111561091257610911610f27565b5b600181111561092457610923610f27565b5b81526020016007820154815250509050919050565b5f602052805f5260405f205f91509050805f01549080600101805461095d90611287565b80601f016020809104026020016040519081016040528092919081815260200182805461098990611287565b80156109d45780601f106109ab576101008083540402835291602001916109d4565b820191905f5260205f20905b8154815290600101906020018083116109b757829003601f168201915b505050505090806002015f9054906101000a900473ffffffffffffffffffffffffffffffffffffffff1690806003015490806004018054610a1490611287565b80601f0160208091040260200160405190810160405280929190818152602001828054610a4090611287565b8015610a8b5780601f10610a6257610100808354040283529160200191610a8b565b820191905f5260205f20905b815481529060010190602001808311610a6e57829003601f168201915b505050505090806005015490806006015f9054906101000a900460ff16908060070154905088565b610abb610aef565b6002610acd610ac8610b30565b610b59565b5f0181905550565b6001610ae7610ae2610b30565b610b59565b5f0181905550565b610af7610b62565b15610b2e576040517f3ee5aeb500000000000000000000000000000000000000000000000000000000815260040160405180910390fd5b565b5f7f9b779b17422d0df92223018b32b4d1fa46e071723d6817e2486d003becc55f005f1b905090565b5f819050919050565b5f6002610b75610b70610b30565b610b59565b5f015414905090565b6040518061010001604052805f8019168152602001606081526020015f73ffffffffffffffffffffffffffffffffffffffff1681526020015f8152602001606081526020015f81526020015f6001811115610bdc57610bdb610f27565b5b81526020015f81525090565b5f80fd5b5f80fd5b5f819050919050565b610c0281610bf0565b8114610c0c575f80fd5b50565b5f81359050610c1d81610bf9565b92915050565b5f60208284031215610c3857610c37610be8565b5b5f610c4584828501610c0f565b91505092915050565b5f8115159050919050565b610c6281610c4e565b82525050565b5f602082019050610c7b5f830184610c59565b92915050565b5f73ffffffffffffffffffffffffffffffffffffffff82169050919050565b5f819050919050565b5f610cc3610cbe610cb984610c81565b610ca0565b610c81565b9050919050565b5f610cd482610ca9565b9050919050565b5f610ce582610cca565b9050919050565b610cf581610cdb565b82525050565b5f602082019050610d0e5f830184610cec565b92915050565b5f80fd5b5f80fd5b5f80fd5b5f8083601f840112610d3557610d34610d14565b5b8235905067ffffffffffffffff811115610d5257610d51610d18565b5b602083019150836001820283011115610d6e57610d6d610d1c565b5b9250929050565b5f819050919050565b610d8781610d75565b8114610d91575f80fd5b50565b5f81359050610da281610d7e565b92915050565b5f805f805f805f60a0888a031215610dc357610dc2610be8565b5b5f610dd08a828b01610c0f565b975050602088013567ffffffffffffffff811115610df157610df0610bec565b5b610dfd8a828b01610d20565b96509650506040610e108a828b01610d94565b945050606088013567ffffffffffffffff811115610e3157610e30610bec565b5b610e3d8a828b01610d20565b93509350506080610e508a828b01610d94565b91505092959891949750929550565b610e6881610bf0565b82525050565b5f81519050919050565b5f82825260208201905092915050565b5f5b83811015610ea5578082015181840152602081019050610e8a565b5f8484015250505050565b5f601f19601f8301169050919050565b5f610eca82610e6e565b610ed48185610e78565b9350610ee4818560208601610e88565b610eed81610eb0565b840191505092915050565b5f610f0282610c81565b9050919050565b610f1281610ef8565b82525050565b610f2181610d75565b82525050565b7f4e487b71000000000000000000000000000000000000000000000000000000005f52602160045260245ffd5b60028110610f6557610f64610f27565b5b50565b5f819050610f7582610f54565b919050565b5f610f8482610f68565b9050919050565b610f9481610f7a565b82525050565b5f61010083015f830151610fb05f860182610e5f565b5060208301518482036020860152610fc88282610ec0565b9150506040830151610fdd6040860182610f09565b506060830151610ff06060860182610f18565b50608083015184820360808601526110088282610ec0565b91505060a083015161101d60a0860182610f18565b5060c083015161103060c0860182610f8b565b5060e083015161104360e0860182610f18565b508091505092915050565b5f6020820190508181035f8301526110668184610f9a565b905092915050565b61107781610bf0565b82525050565b5f82825260208201905092915050565b5f61109782610e6e565b6110a1818561107d565b93506110b1818560208601610e88565b6110ba81610eb0565b840191505092915050565b6110ce81610ef8565b82525050565b6110dd81610d75565b82525050565b6110ec81610f7a565b82525050565b5f610100820190506111065f83018b61106e565b8181036020830152611118818a61108d565b905061112760408301896110c5565b61113460608301886110d4565b8181036080830152611146818761108d565b905061115560a08301866110d4565b61116260c08301856110e3565b61116f60e08301846110d4565b9998505050505050505050565b5f60608201905061118f5f8301866110c5565b61119c60208301856110c5565b6111a960408301846110d4565b949350505050565b6111ba81610c4e565b81146111c4575f80fd5b50565b5f815190506111d5816111b1565b92915050565b5f602082840312156111f0576111ef610be8565b5b5f6111fd848285016111c7565b91505092915050565b5f6040820190506112195f8301856110d4565b61122660208301846110d4565b9392505050565b7f4e487b71000000000000000000000000000000000000000000000000000000005f52604160045260245ffd5b7f4e487b71000000000000000000000000000000000000000000000000000000005f52602260045260245ffd5b5f600282049050600182168061129e57607f821691505b6020821081036112b1576112b061125a565b5b50919050565b5f819050815f5260205f209050919050565b5f6020601f8301049050919050565b5f82821b905092915050565b5f600883026113137fffffffffffffffffffffffffffffffffffffffffffffffffffffffffffffffff826112d8565b61131d86836112d8565b95508019841693508086168417925050509392505050565b5f61134f61134a61134584610d75565b610ca0565b610d75565b9050919050565b5f819050919050565b61136883611335565b61137c61137482611356565b8484546112e4565b825550505050565b5f90565b611390611384565b61139b81848461135f565b505050565b5b818110156113be576113b35f82611388565b6001810190506113a1565b5050565b601f821115611403576113d4816112b7565b6113dd846112c9565b810160208510156113ec578190505b6114006113f8856112c9565b8301826113a0565b50505b505050565b5f82821c905092915050565b5f6114235f1984600802611408565b1980831691505092915050565b5f61143b8383611414565b9150826002028217905092915050565b61145482610e6e565b67ffffffffffffffff81111561146d5761146c61122d565b5b6114778254611287565b6114828282856113c2565b5f60209050601f8311600181146114b3575f84156114a1578287015190505b6114ab8582611430565b865550611512565b601f1984166114c1866112b7565b5f5b828110156114e8578489015182556001820191506020850194506020810190506114c3565b868310156115055784890151611501601f891682611414565b8355505b6001600288020188555050505b505050505050565b828183375f83830152505050565b5f611533838561107d565b935061154083858461151a565b61154983610eb0565b840190509392505050565b5f6060820190508181035f83015261156d818688611528565b905061157c60208301856110d4565b61158960408301846110d4565b9594505050505056fea26469706673582212202ae93f25e4e16a6eef36a01e25111df640faa0f8c39cc9dc069c85a398cc5bf364736f6c63430008140033",
  "linkReferences": {},
  "deployedLinkReferences": {},
  "immutableReferences": {
    "257": [
      {
        "length": 32,
        "start": 768
      },
      {
        "length": 32,
        "start": 1173
      }
    ]
  },
  "inputSourceName": "project/contracts/Recibo.sol",
  "buildInfoId": "solc-0_8_20-9ea3a13d85ec766a352e4f8d8553bd9cc0b321d4"
}