{"abi":[{"type":"constructor","inputs":[{"name":"_name","type":"string","internalType":"string"},{"name":"_symbol","type":"string","internalType":"string"},{"name":"_yieldBps","type":"uint256","internalType":"uint256"}],"stateMutability":"nonpayable"},{"type":"function","name":"allowance","inputs":[{"name":"","type":"address","internalType":"address"},{"name":"","type":"address","internalType":"address"}],"outputs":[{"name":"","type":"uint256","internalType":"uint256"}],"stateMutability":"view"},{"type":"function","name":"approve","inputs":[{"name":"spender","type":"address","internalType":"address"},{"name":"amount","type":"uint256","internalType":"uint256"}],"outputs":[{"name":"","type":"bool","internalType":"bool"}],"stateMutability":"nonpayable"},{"type":"function","name":"balanceOf","inputs":[{"name":"","type":"address","internalType":"address"}],"outputs":[{"name":"","type":"uint256","internalType":"uint256"}],"stateMutability":"view"},{"type":"function","name":"currentYield","inputs":[],"outputs":[{"name":"","type":"uint256","internalType":"uint256"}],"stateMutability":"view"},{"type":"function","name":"decimals","inputs":[],"outputs":[{"name":"","type":"uint8","internalType":"uint8"}],"stateMutability":"view"},{"type":"function","name":"mint","inputs":[{"name":"to","type":"address","internalType":"address"},{"name":"amount","type":"uint256","internalType":"uint256"}],"outputs":[],"stateMutability":"nonpayable"},{"type":"function","name":"name","inputs":[],"outputs":[{"name":"","type":"string","internalType":"string"}],"stateMutability":"view"},{"type":"function","name":"owner","inputs":[],"outputs":[{"name":"","type":"address","internalType":"address"}],"stateMutability":"view"},{"type":"function","name":"setYield","inputs":[{"name":"_yieldBps","type":"uint256","internalType":"uint256"}],"outputs":[],"stateMutability":"nonpayable"},{"type":"function","name":"symbol","inputs":[],"outputs":[{"name":"","type":"string","internalType":"string"}],"stateMutability":"view"},{"type":"function","name":"totalSupply","inputs":[],"outputs":[{"name":"","type":"uint256","internalType":"uint256"}],"stateMutability":"view"},{"type":"function","name":"transfer","inputs":[{"name":"to","type":"address","internalType":"address"},{"name":"amount","type":"uint256","internalType":"uint256"}],"outputs":[{"name":"","type":"bool","internalType":"bool"}],"stateMutability":"nonpayable"},{"type":"function","name":"transferFrom","inputs":[{"name":"from","type":"address","internalType":"address"},{"name":"to","type":"address","internalType":"address"},{"name":"amount","type":"uint256","internalType":"uint256"}],"outputs":[{"name":"","type":"bool","internalType":"bool"}],"stateMutability":"nonpayable"},{"type":"function","name":"yieldBps","inputs":[],"outputs":[{"name":"","type":"uint256","internalType":"uint256"}],"stateMutability":"view"},{"type":"event","name":"Approval","inputs":[{"name":"owner","type":"address","indexed":true,"internalType":"address"},{"name":"spender","type":"address","indexed":true,"internalType":"address"},{"name":"value","type":"uint256","indexed":false,"internalType":"uint256"}],"anonymous":false},{"type":"event","name":"Transfer","inputs":[{"name":"from","type":"address","indexed":true,"internalType":"address"},{"name":"to","type":"address","indexed":true,"internalType":"address"},{"name":"value","type":"uint256","indexed":false,"internalType":"uint256"}],"anonymous":false},{"type":"event","name":"YieldUpdated","inputs":[{"name":"yieldBps","type":"uint256","indexed":false,"internalType":"uint256"}],"anonymous":false}],"bytecode":{"object":"0x608060405234801562000010575f80fd5b5060405162000b1238038062000b1283398101604081905262000033916200012e565b5f62000040848262000226565b5060016200004f838262000226565b506005555050600680546001600160a01b03191633179055620002f2565b634e487b7160e01b5f52604160045260245ffd5b5f82601f83011262000091575f80fd5b81516001600160401b0380821115620000ae57620000ae6200006d565b604051601f8301601f19908116603f01168101908282118183101715620000d957620000d96200006d565b8160405283815260209250866020858801011115620000f6575f80fd5b5f91505b83821015620001195785820183015181830184015290820190620000fa565b5f602085830101528094505050505092915050565b5f805f6060848603121562000141575f80fd5b83516001600160401b038082111562000158575f80fd5b620001668783880162000081565b945060208601519150808211156200017c575f80fd5b506200018b8682870162000081565b925050604084015190509250925092565b600181811c90821680620001b157607f821691505b602082108103620001d057634e487b7160e01b5f52602260045260245ffd5b50919050565b601f8211156200022157805f5260205f20601f840160051c81016020851015620001fd5750805b601f840160051c820191505b818110156200021e575f815560010162000209565b50505b505050565b81516001600160401b038111156200024257620002426200006d565b6200025a816200025384546200019c565b84620001d6565b602080601f83116001811462000290575f8415620002785750858301515b5f19600386901b1c1916600185901b178555620002ea565b5f85815260208120601f198616915b82811015620002c0578886015182559484019460019091019084016200029f565b5085821015620002de57878501515f19600388901b60f8161c191681555b505060018460011b0185555b505050505050565b61081280620003005f395ff3fe608060405234801561000f575f80fd5b50600436106100e5575f3560e01c806378a642f211610088578063a9059cbb11610063578063a9059cbb146101dd578063c603f75f146101f0578063dd62ed3e146101f9578063e42da3b414610223575f80fd5b806378a642f2146101a25780638da5cb5b146101aa57806395d89b41146101d5575f80fd5b806323b872dd116100c357806323b872dd14610141578063313ce5671461015457806340c10f191461016e57806370a0823114610183575f80fd5b806306fdde03146100e9578063095ea7b31461010757806318160ddd1461012a575b5f80fd5b6100f1610236565b6040516100fe919061063a565b60405180910390f35b61011a6101153660046106a1565b6102c1565b60405190151581526020016100fe565b61013360025481565b6040519081526020016100fe565b61011a61014f3660046106c9565b61032d565b61015c601281565b60405160ff90911681526020016100fe565b61018161017c3660046106a1565b6103dd565b005b610133610191366004610702565b60036020525f908152604090205481565b600554610133565b6006546101bd906001600160a01b031681565b6040516001600160a01b0390911681526020016100fe565b6100f16103eb565b61011a6101eb3660046106a1565b6103f8565b61013360055481565b610133610207366004610722565b600460209081525f928352604080842090915290825290205481565b610181610231366004610753565b61040d565b5f80546102429061076a565b80601f016020809104026020016040519081016040528092919081815260200182805461026e9061076a565b80156102b95780601f10610290576101008083540402835291602001916102b9565b820191905f5260205f20905b81548152906001019060200180831161029c57829003601f168201915b505050505081565b335f8181526004602090815260408083206001600160a01b038716808552925280832085905551919290917f8c5be1e5ebec7d5bd14f71427d1e84f3dd0314c0f7b2291e5b200ac8c7c3b9259061031b9086815260200190565b60405180910390a35060015b92915050565b6001600160a01b0383165f9081526004602090815260408083203384529091528120545f1981146103c757828110156103995760405162461bcd60e51b8152602060048201526009602482015268414c4c4f57414e434560b81b60448201526064015b60405180910390fd5b6103a383826107b6565b6001600160a01b0386165f9081526004602090815260408083203384529091529020555b6103d285858561048e565b506001949350505050565b6103e7828261058f565b5050565b600180546102429061076a565b5f61040433848461048e565b50600192915050565b6006546001600160a01b031633146104535760405162461bcd60e51b81526020600482015260096024820152682727aa2fa7aba722a960b91b6044820152606401610390565b60058190556040518181527f90427aaa52d772393dbc0baaaa6eb821cdec72ed0870206d71ccc004efe43bba9060200160405180910390a150565b6001600160a01b0382166104d05760405162461bcd60e51b81526020600482015260096024820152682d22a927afa0a2222960b91b6044820152606401610390565b6001600160a01b0383165f90815260036020526040902054818110156105225760405162461bcd60e51b815260206004820152600760248201526642414c414e434560c81b6044820152606401610390565b6001600160a01b038085165f8181526003602052604080822086860390559286168082529083902080548601905591517fddf252ad1be2c89b69c2b068fc378daa952ba7f163c4a11628f55a4df523b3ef906105819086815260200190565b60405180910390a350505050565b6001600160a01b0382166105d15760405162461bcd60e51b81526020600482015260096024820152682d22a927afa0a2222960b91b6044820152606401610390565b8060025f8282546105e291906107c9565b90915550506001600160a01b0382165f818152600360209081526040808320805486019055518481527fddf252ad1be2c89b69c2b068fc378daa952ba7f163c4a11628f55a4df523b3ef910160405180910390a35050565b5f602080835283518060208501525f5b818110156106665785810183015185820160400152820161064a565b505f604082860101526040601f19601f8301168501019250505092915050565b80356001600160a01b038116811461069c575f80fd5b919050565b5f80604083850312156106b2575f80fd5b6106bb83610686565b946020939093013593505050565b5f805f606084860312156106db575f80fd5b6106e484610686565b92506106f260208501610686565b9150604084013590509250925092565b5f60208284031215610712575f80fd5b61071b82610686565b9392505050565b5f8060408385031215610733575f80fd5b61073c83610686565b915061074a60208401610686565b90509250929050565b5f60208284031215610763575f80fd5b5035919050565b600181811c9082168061077e57607f821691505b60208210810361079c57634e487b7160e01b5f52602260045260245ffd5b50919050565b634e487b7160e01b5f52601160045260245ffd5b81810381811115610327576103276107a2565b80820180821115610327576103276107a256fea264697066735822122037e7596f16136db811655cee86a2c9ba8709bb469db580ce1d7a211a45a19d2864736f6c63430008180033","linkReferences":{}},"methodIdentifiers":{"allowance(address,address)":"dd62ed3e","approve(address,uint256)":"095ea7b3","balanceOf(address)":"70a08231","currentYield()":"78a642f2","decimals()":"313ce567","mint(address,uint256)":"40c10f19","name()":"06fdde03","owner()":"8da5cb5b","setYield(uint256)":"e42da3b4","symbol()":"95d89b41","totalSupply()":"18160ddd","transfer(address,uint256)":"a9059cbb","transferFrom(address,address,uint256)":"23b872dd","yieldBps()":"c603f75f"},"id":1}